:1000000080312828080008007E1480310B1F092841
:100010000A2826282100111F0E280F281828200042
:10002000111F1328142818288E31FE268031262807
:100030002100931D1C281D2826282000931D2128FF
:10004000222826288E319E26803126287E100900FF
:1000500080312A28F801F901FA012000DB01DC01D6
:10006000DD01DE01DF01E001E101E2012100BC016F
:10007000BD01BE01BF017E1020008331C42B2000D2
:100080002D088039B2003208B7002D35B200320891
:10009000BD00AC1F4C284D284E283D143D080319C7
:1000A0005228532862283D0A031D572858286028E3
:1000B0000030AD000030AC000030AB000030AA00D2
:1000C000AC176A280030AD000030AC000030AB0047
:1000D0000030AA0031088039B2003208B706313545
:1000E000B2003208BC00B01F7628772878283C146C
:1000F0003C0803197C287D288C283C0A031D812894
:1001000082288A280030B1000030B0000030AF00F3
:100110000030AE00B01794280030B1000030B000BD
:100120000030AF000030AE003C0803199828992831
:100130009E283D08031D9D289E28A7280030AD005D
:100140000030AC000030AB000030AA00952A2A082D
:10015000B2003208F30030088F31A72780317408CD
:100160002000C3007308C2004208B200B301B4010A
:10017000B5013508BB003408BA003308B9003208AD
:10018000B8004308B200B301B401B5013508C1009D
:100190003408C0003308BF003208BE002B08B2008C
:1001A0003208F3002F088F31A72780317408200010
:1001B000C3007308C2004208B200B301B401B50124
:1001C0003208B8073308B93D3408BA3D3508BB3D9D
:1001D0004308B200B301B401B5013208BE073308C9
:1001E000BF3D3408C03D3508C13D2C08B20032087F
:1001F000F3002E088F31A727803174082000C30038
:100200007308C2004208B200B301B401B50132085C
:10021000B8073308B93D3408BA3D3508BB3D43083B
:10022000B200B301B401B5013208BE073308BF3DC7
:100230003408C03D3508C13D0830B835B90DBA0D98
:10024000BB0D890B1D292B08B2003208F3002E08C4
:100250008F31A727803174082000C3007308C200C3
:100260004208B8074308B93D0030BA3DBB3D2A08F3
:10027000B2003208F3002F088F31A72780317408AD
:100280002000C3007308C2004208B8074308B93D04
:100290000030BA3DBB3D0830B835B90DBA0DBB0DC5
:1002A000890B4C292A08B2003208F3002E088F313E
:1002B000A727803174082000C3007308C2004208D9
:1002C000B8074308B93D0030BA3DBB3D2B08B2002A
:1002D0003208F30030088F31A727803174082000DE
:1002E000C3007308C2004208BE074308BF3D003088
:1002F000C03DC13D2C08B2003208F3002F088F31F9
:10030000A727803174082000C3007308C200420888
:10031000BE074308BF3D0030C03DC13D2C08B200C0
:100320003208F30030088F31A7278031740820008D
:10033000C3007308C2004208B2004308B300B4010E
:10034000B5010830B235B30DB40DB50D890BA22936
:100350003208BE073308BF3D3408C03D3508C13DF3
:100360003808B2003908B3003A08B4003B08B500B9
:100370001830B536B40CB30CB20C890BB92932085D
:10038000BE073308BF3D3408C03D3508C13D0830C5
:10039000B835B90DBA0DBB0D890BC8293D083C070E
:1003A000B200B301B30D3208823EC200FF30333DCC
:1003B000C300F1290130BE35BF0DC00DC10D890B41
:1003C000DB29BB1FE429E529E6293E140130B835B5
:1003D000B90DBA0DBB0D890BE729FF30C207FF30FD
:1003E000C33DC01FF429F529DA29BC01BB1FF92937
:1003F000FA29162AFF303805B200FF303905B3005C
:10040000FF303A05B4007F303B05B50035083404B1
:100410003304320403190D2A0E2A112ABC01BC0A26
:10042000162A3E1C142A152A162A0E2A3C080319DD
:100430001A2A1B2A432A0130BE070030BF3D003074
:10044000C03D0030C13D411C262A272A432A3E08D0
:10045000B2003F08B3004008B4004108B5000130C5
:10046000B600B537B40CB30CB20CB60B312A350854
:10047000C1003408C0003308BF003208BE0001309C
:10048000C2070030C33D4308803AB20080303202D8
:10049000031D4C2AFF304202031C4F2A502A5A2ABD
:1004A0007F302000C1008030C0000030BF0000302D
:1004B000BE00892A20004308803AB2008030320210
:1004C000031D642A013042020318672A682A732A2E
:1004D00000302000C1000030C0000030BF000030FC
:1004E000BE00B701892A20004208B2003208BD00D0
:1004F000FF30BE05FF30BF057F30C0050030C105AD
:100500003D1C832A842A852AC0173D36B200320852
:10051000C1003708B2003208C1044108AD004008EC
:10052000AC003F08AB003E08AA0008002000A00075
:10053000A42B2008063E8600870101308102200896
:10054000063E860087010108031DA72AA82ABB2AA8
:100550000230F60020088600870176088100200816
:10056000053E860087010108F6002008073E860048
:1005700087017608810001308731CE278231200043
:10058000200A860087010108853151258231C32B5D
:100590002008073E86008701013081022008073EBF
:1005A000860087010108031DD62AD72AEA2A0330CC
:1005B000F600200886008701760881002008043EA6
:1005C000860087010108F6002008063E86008701A4
:1005D0007608810000308731CE278231C32B200876
:1005E000063E86008701013081022008063E860013
:1005F00087010108031DFD2AFE2A112B0430F60095
:10060000200886008701760881002008053E8600C4
:1006100087010108F6002008073E8600870176085A
:10062000810002308731CE27823120002008023E2F
:10063000860087010108853151258231C32B2008AE
:10064000073E86008701013081022008073E8600B0
:1006500087010108031D2D2B2E2B412B0530F600A1
:10066000200886008701760881002008043E860065
:1006700087010108F6002008063E860087017608FB
:10068000810000308731CE278231C32B2008063EFF
:1006900086008701013081022008063E860087011E
:1006A0000108031D542B552B682B0630F60020083B
:1006B00086008701760881002008053E86008701B4
:1006C0000108F6002008073E8600870176088100B1
:1006D00003308731CE27823120002008033E860078
:1006E00087010108853151258231C32B2008073E3F
:1006F00086008701013081022008073E86008701BD
:100700000108031D842B852B962B2008860087016A
:100710008101810A2008043E860087010108F60055
:100720002008063E86008701760881000030873168
:10073000CE278231C32B0A308531512582310230D8
:100740008731CE2782319B2B200886008701010844
:10075000F600F7017708003A0319AF2B9B2B7608B8
:10076000013A0319992A033A0319C82A013A0319CD
:10077000EF2A073A03191F2B013A0319462B033AB4
:100780000319762B9B2B08002100A201A301A401D1
:100790008F313E278331E830F3000330F400AB3073
:1007A0008F31672783318F311B27833121001D084B
:1007B00021389D001D08A3399D00E0309E000430C3
:1007C0002000D7005708F3000530D8005808F4007F
:1007D0000630D9005908F5000430DA005A08F6004E
:1007E000F701F70AB4308731152783318E318B2614
:1007F00083318B170B17E430F3000E30F400873190
:10080000FB2783319830F3000E30F4008E31B6268A
:10081000833121003E0803190E2C0F2C182CBE0129
:10082000AB30863157268331B43082319622833102
:10083000AB308E31BC268331003A0319202C212C99
:100840002B2CAB308E31CE2683318E3188268331EE
:100850002100A401A40A210024080319302C312C02
:10086000792C8F310C278331003A0319382C392C1D
:10087000792C2100A4013708303E2000D70057080A
:100880002100A5002C302000D70057082100A60029
:100890003608303E2000D70057082100A700350851
:1008A000303E2000D70057082100A8000D3020005E
:1008B000D70057082100AA0025088E31C4268331AD
:1008C000210026088E31C4268331210027088E316D
:1008D000C4268331210028088E31C42683312100AB
:1008E00029088E31C426833121002A088E31C4267E
:1008F000833121003F0803197E2C7F2C092CBF0176
:100900003D08A1003C08A00021082000D0002100E3
:1009100020082000CF008731912783312000500824
:100920002100A30020004F082100A200230820007E
:10093000A400210022082000A300B4308631B7268D
:100940008331092C803128282000A40024080319B1
:10095000AA2CAB2CBF2CF61FAE2CAF2CBF2C7309CE
:10096000A6007409A7007509A8007609A900A60ABF
:100970000319A70A0319A80A0319A90AC72C76089C
:10098000A9007508A8007408A7007308A6007608D7
:10099000750474047304031DCE2CCF2CD82C0030A6
:1009A000F6000030F5000030F4000030F300502D68
:1009B0009630A0002008A500E82C0130A0002008F7
:1009C000A5070130A936A80CA70CA60C890BE22CB0
:1009D000FE302905031DED2CEE2CDD2C022D0130FF
:1009E000A0002008A5070130A6070030A73D003071
:1009F000A83D0030A93D0130A936A80CA70CA60CD3
:100A0000890BFC2CFF302905031D072D082DEF2C29
:100A1000122D0130A5020130A635A70DA80DA90D94
:100A2000890B0C2DA81B152D162D1C2D023025020F
:100A300003181B2D1C2D092D25181F2D202D282DA9
:100A4000FF30A605FF30A7057F30A805FF30A905B8
:100A50000310A50C2508A000A101A201A3011830D4
:100A6000A035A10DA20DA30D890B302D2008A604E1
:100A70002108A7042208A8042308A90424080319AC
:100A8000422D432D482DF61F462D472D482DA917E1
:100A90002908F6002808F5002708F4002608F300C6
:100AA0000800F500B62D22000C148C140C158C15C2
:100AB0000C160C178C13E12D22000C108C140C1545
:100AC0008C110C120C138C13E12D22000C148C14BD
:100AD0000C118C150C160C138C17E12D22000C1424
:100AE0008C140C158C150C120C138C17E12D220094
:100AF0000C108C140C158C110C120C178C17E12D8A
:100B000022000C148C100C158C150C120C178C1761
:100B1000E12D22000C148C100C158C150C160C17E2
:100B20008C17E12D22000C148C140C158C110C1256
:100B30000C178C13E12D22000C148C140C158C1541
:100B40000C160C178C17E12D22000C148C140C15AC
:100B50008C110C120C178C17E12D22000C148C1424
:100B60000C158C150C160C178C17E12D7508F3005D
:100B7000F4017408003A0319BE2DE12D7308003A00
:100B80000319532D013A03195C2D033A0319652DFE
:100B9000013A03196E2D073A0319772D013A03190B
:100BA000802D033A0319892D013A0319922D0F3A2A
:100BB00003199B2D013A0319A42D033A0319AD2DF6
:100BC000E12D080003102000460D470DC80048081D
:100BD000CE004E08031DED2DEE2DF72D0030C70081
:100BE0000030C6000030C5000030C400562E440856
:100BF000C8004508C9004608CA004708CB001F3096
:100C0000CB36CA0CC90CC80C890B002E4808CC0086
:100C10004C08CD00C617FF30C405FF30C505FF30B6
:100C2000C6050030C7059630CE02CE1F182E192EED
:100C3000312E4E08803A973E03181F2E202E212E6B
:100C4000EE2D0130C736C60CC50CC40C890B222E04
:100C50000130C8004808CE07031D2F2E302E212E4C
:100C6000462E20304E02031C362E372E412EEE2DFE
:100C70000130C435C50DC60DC70D890B392E0130A5
:100C8000CE024E08031D452E462E382E4D08031960
:100C90004A2E4B2E562EC409C509C609C709C40AD7
:100CA0000319C50A0319C60A0319C70A0800F70081
:100CB0007708083E86008701011C5F2E602E822E79
:100CC0007708860087010130810241310030813B85
:100CD0007F3177088600870116000104031D712EFD
:100CE000722E822E7708083E8600870181147708CD
:100CF000023E86008701770884008501403F803FDF
:100D0000413F813F7708043E86008701403FF30062
:100D1000413FF400423FF500433FF600760875047A
:100D2000740473040319952E962EB62EFF30F3002B
:100D3000FF30F400FF30F500FF30F6007708043E86
:100D400086008701403FF307413FF43D423FF53DB8
:100D5000433FF63D7708043E860087017308C03F95
:100D60007408C13F7508C23F7608C33F08002000E1
:100D7000A6000A30F3000030F4002408F60023082F
:100D8000F5008F31CB27863173082000A500260A95
:100D900086008701250881000A30F3000030F40046
:100DA0002408F6002308F50087315427863174089B
:100DB0002000A4007308A3000A30F3000030F40000
:100DC0002408F6002308F5008F31CB2786317308FD
:100DD0002000A5002608023E860087012508810024
:100DE0000A30F3000030F4002408F6002308F50070
:100DF00087315427863174082000A4007308A300AB
:100E00000A30F3000030F4002408F6002308F5004F
:100E10008F31CB27863173082000A5002608033EBA
:100E2000860087012508810008002000A100210814
:100E3000860087018101810A7308A000210A8600CB
:100E40008701200881007408A0002108023E860066
:100E50008701200881007508A0002108033E860054
:100E60008701200881007608A0002108043E860042
:100E70008701200881007708A0002108053E860030
:100E80008701200881007608A0002108063E860020
:100E90008701200881007708A0002108073E86000E
:100EA00087012008810008002000A101A201730829
:100EB000740403195C2F5D2F8C2FA001A00A692FE9
:100EC0000130F335F40D890B612F0130F7007708FD
:100ED000A007F41F6C2F6D2F602F0130A135A20DDC
:100EE000890B6E2F74087602031D782F7308750224
:100EF000031C7B2F7C2F812F7308F5027408F63BAF
:100F000021140130F436F30C890B822F0130A0023A
:100F1000031D8B2F8C2F6D2F2208F4002108F30066
:100F200008003F302000D4007930D300FE30D200DA
:100F30008730D1004F08F3005008F400F501F601A6
:100F400000308431A424873176082000B100750870
:100F5000B0007408AF007308AE005408AD00530829
:100F6000AC005208AB005108AA0080313F20873105
:100F700020002D08C7002C08C6002B08C5002A0831
:100F8000C4008531E225873120004508D600440899
:100F9000D5005608D0005508CF000800F500E42F12
:100FA00022000D108D118D12FA2F22000D148D11BB
:100FB0008D12FA2F22000D108D158D12FA2F22009E
:100FC0000D108D118D16FA2F7508F300F4017408B9
:100FD000003A0319EC2FFA2F7308003A0319D02FA7
:100FE000013A0319D52F033A0319DA2F013A0319ED
:100FF000DF2FFA2F08007408F9007308F8000800C2
:101D100021009D14080028001E150800163021001F
:101D20009700080021001C08F1001B08F0000800C3
:101D30000130F00070082100BE000800200093115F
:101D40008E31F1268E31080074082000DC00730803
:101D5000DB00080074082000E0007308DF000800C2
:101D600074082000DE007308DD00080074082000FD
:101D7000E2007308E1000800F3007308083E8600E3
:101D80008701010802390800F3002000111EC92E46
:101D9000CA2EC52E730823009A000800F400FD30F7
:101DA000F3007408083E8600870173088105080067
:101DB00070302100990098012200960121001A1F1D
:101DC000E22EE32EDE2E08008E3192268E3171082F
:101DD0002100BD007008BC000130F2007208BF0095
:101DE00008002000610862040319F72EF82EFD2E6A
:101DF00062088A0061080A008E3108002000111371
:101E0000780879040319052F062F0B2F79088A000B
:101E100078080A008F310800F3012000111E112FED
:101E2000122F192F23009E1E162F172F192FF30183
:101E3000F30A73080800603021009E009B019C019A
:101E400001309D0011170230F3000030F40087319B
:101E5000FB278F310800313028009D009C012000B5
:101E60009311210093150330F3000030F4008E31FC
:101E7000B6268F314E3028009E0008008F31512742
:101E80008F318E31D8268F318E318E268F318F3122
:101E90002B278F318F311B278F318F3185278F3142
:101EA000080022008C018D01203021008C00D630EA
:101EB0008D00383023008D001F308C0024008D01F0
:101EC0008C012100951722009D019E010800F6005B
:101ED0007608083E860087010114FD30F50076087B
:101EE000083E86008701750881057608023E860057
:101EF00087017308C03F7408C13F760886008701D8
:101F00007308C03F7408C13F0800083023009F00D9
:101F100090309D0024309E0040309B0003309C0098
:101F20000030F3000030F4008E31AA268F310030EB
:101F3000F3000030F4008E31B0268F310030F30012
:101F40000030F4008E31A4268F31FA010800200001
:101F5000A400A001A1017308F500F6017508A20014
:101F60007608A300241CB52FB62FBA2F2208A0078D
:101F70002308A13D0130A235A30D890BBB2F03100F
:101F8000A40C2408031DC52FC62FB22F2108F4006E
:101F90002008F3000800730874040319D02FD12F10
:101FA000FB2F2000A001A00ADE2F0130F335F40D35
:101FB000890BD62F0130F7007708A007F41FE12F17
:101FC000E22FD52F74087602031DE82F73087502DF
:101FD000031CEB2FEC2FF02F7308F5027408F63B6F
:101FE0000130F436F30C890BF12F0130A002031DF0
:101FF000FA2FFB2FE22F7608F4007508F300080093
:020000040001F9
:04000E00E43FFF3F8D
:00000001FF
