:040000003BEF79F069
:10F21A0001C028F002C029F0120001C02CF002C07F
:10F22A002DF0120001C02AF002C02BF01200645027
:10F23A00046E036A63500324016E000E0420026EFA
:10F24A00120060A02BEF79F02EEF79F0010E2FEF6C
:10F25A0079F0000E12000E01CDBB36EF79F039EFCE
:10F26A0079F0010E3AEF79F0000E120000EE19F073
:10F27A000F0EEE6AE806FDE1000EF86E000180EF5F
:10F28A007BF0016E0E01CDA94DEF79F04FEF79F0C9
:10F29A0047EF79F001C09AFF1200600E0E01D86F95
:10F2AA00000EDA6F000EDC6F030EDE6F000EDD6FEC
:10F2BA0012006BEC79F0CEEC7AF052EC79F03AEC81
:10F2CA007AF079EC79F0FAEC79F01200000E0E017E
:10F2DA00E16F000EE26F000EE36F000EE46F000EA6
:10F2EA00E56F000EE66F1200030EB36E200EB26ECB
:10F2FA00000EB46E040EB06E000EAF6E0E01CE9B01
:10F30A00FC0EB16E120001500302F3CF05F0F4CFE8
:10F31A0006F001500402F350062602500302F3508D
:10F32A00062605C001F006C002F01200000E016EAA
:10F33A000E01CDA9A3EF79F0A5EF79F0AEEF79F040
:10F34A009EAAAAEF79F0ACEF79F0AEEF79F0010E50
:10F35A00016E015012000E01CDABB6EF79F0B8EF95
:10F36A0079F0B0EF79F0000E276E9DA2BFEF79F029
:10F37A00C1EF79F0C3EF79F09D989D8899501200FA
:10F38A000E01CEBBCBEF79F0CEEF79F0010ECFEFC5
:10F39A0079F0000E016E0150D8B4D6EF79F0D8EFAB
:10F3AA0079F0D9EF79F0CE9B0150120001C0D9FF54
:10F3BA0002C0DAFF000EDF6E20EE01F00150D926FE
:10F3CA000250DA22000EDF6E20EE02F00150D9263A
:10F3DA000250DA22000EDF6E20EE03F00150D92629
:10F3EA000250DA22000EDF6E1200080E9F6E900E97
:10F3FA009D6E240E9E6E220E9B6E000E9C6E000E5B
:10F40A00016E000E026E12EC79F0000E016E000E13
:10F41A00026E17EC79F0000E016E000E026E0DEC12
:10F42A0079F0000E276E120001C0D9FF02C0DAFF80
:10F43A00000EDE6E000EDD6E20EE02F00150D926BF
:10F44A000250DA22230EDF6E20EE03F00150D92695
:10F45A000250DA222A0EDF6E20EE04F00150D9267D
:10F46A000250DA22000EDF6E1200000E6A6E000EE3
:10F47A006B6E000E6C6E000E6D6E000E686E000EE6
:10F48A00696E000E666E080E0F015F6F000E5D6FEB
:10F49A00000E5E6F000E596F000E5A6F000E5B6F02
:10F4AA00000E656E000E586F000E566F070E576FEE
:10F4BA00840E606E010E5C6F120003500410D8B403
:10F4CA0069EF7AF06BEF7AF08FEF7AF0010E056E42
:10F4DA0073EF7AF0D89003360436052A04AE78EF33
:10F4EA007AF07AEF7AF06FEF7AF00350015C045009
:10F4FA000258D8A083EF7AF085EF7AF089EF7AF094
:10F50A000350015E0450025AD89004320332052E89
:10F51A007AEF7AF001C001F002C002F01200000E88
:10F52A00066E000E056E03500410D8B49FEF7AF0F1
:10F53A00A1EF7AF0C9EF7AF0010E076EA9EF7AF01F
:10F54A00D89003360436072A04AEAEEF7AF0B0EF4D
:10F55A007AF0A5EF7AF0D890053606360350015CAA
:10F56A0004500258D8A0BCEF7AF0BEEF7AF0C3EF8D
:10F57A007AF00350015E0450025A0580D890043292
:10F58A000332072EB0EF7AF005C001F006C002F090
:10F59A001200000E876E000E866E000E836E000E3D
:10F5AA00846E000E856E070E8C6E8868F70E896E63
:10F5BA00FD0E8A6EDC0E8B6E0F012669FE0E216F20
:10F5CA001969070E2E6F1169000E256F000E2D6F37
:10F5DA00000E186F000E106F000E206F000E2C6FB9
:10F5EA00000E0F6F000E176F000E1F6F000E246FB4
:10F5FA000E6916691E692369070E2B6F0D69156955
:10F60A001D6922690F0E2A6F100E0E01B56F090EC1
:10F61A00F86F120020EE03F00850D9260950DA22BA
:10F62A000AC001F00BC002F0000E046E0A0E036E4F
:10F63A0062EC7AF00150DF6E0AC001F00BC002F0F2
:10F64A00000E046E0A0E036E94EC7AF001C00AF002
:10F65A0002C00BF020EE02F00850D9260950DA2237
:10F66A000AC001F00BC002F0000E046E0A0E036E0F
:10F67A0062EC7AF00150DF6E0AC001F00BC002F0B2
:10F68A00000E046E0A0E036E94EC7AF001C00AF0C2
:10F69A0002C00BF020EE01F00850D9260950DA22F8
:10F6AA000AC001F00BC002F0000E046E0A0E036ECF
:10F6BA0062EC7AF00150DF6E0AC001F00BC002F072
:10F6CA00000E046E0A0E036E94EC7AF001C00AF082
:10F6DA0002C00BF00AC001F00BC002F0000E046E6B
:10F6EA000A0E036E62EC7AF0015008C0D9FF09C015
:10F6FA00DAFFDF6E12005EEC79F0140E016E000E76
:10F70A00026E19EC7AF0100E016E000E026EDBEC3E
:10F71A0079F03AEC7AF0000E0F6E4F0EB06EF60EDC
:10F72A00B16E869086928496869A30EC79F00009BA
:10F73A00D8B4A2EF7BF0A4EF7BF0AAEF7BF0140E13
:10F74A00016E000E026E40EC7CF02504D8A4B0EFE6
:10F75A007BF0B2EF7BF0C6EF7BF086B0B7EF7BF0C1
:10F76A00BAEF7BF0010EBBEF7BF0000EFF0A0C6EC6
:10F77A0086500C18FE0B0C18866E000E256EF1ECE6
:10F78A007DF0C5EC79F00009D8B4CEEF7BF0D0EF6C
:10F79A007BF0E6EF7BF08680608E608084B6D8EFDF
:10F7AA007BF0DBEF7BF0010EDCEF7BF0000EFF0A53
:10F7BA000C6E0C460C460C4684500C18F70B0C18B1
:10F7CA00846E26EC79F00009D8A4EEEF7BF0F0EF16
:10F7DA007BF015EF7CF0869086BAF6EF7BF0F9EFB6
:10F7EA007BF0010EFAEF7BF0000EFF0A0C6E0C3A6A
:10F7FA000C4686500C18DF0B0C18866E1CEC79F040
:10F80A0001C00DF002C00EF0100E086E000E096E57
:10F81A000DC00AF00EC00BF00FEC7BF0010E0F6E5C
:10F82A000F50D8B41BEF7CF01DEF7CF09AEF7BF001
:10F83A009BEC79F00009D8B425EF7CF027EF7CF037
:10F84A009AEF7BF0000E0F6E1050300F46EC79F0F5
:10F85A001150300F46EC79F01250300F46EC79F027
:10F86A001350300F46EC79F00D0E46EC79F09AEF12
:10F87A007BF000EF00F0C1EF7DF001C0D9FF02C0BC
:10F88A00DAFFDECF03F0DDCF04F0190E0324D96EC0
:10F89A00000E0420DA6EB0EC79F0DF6E01C0D9FFF9
:10F8AA0002C0DAFFDECF03F0DDCF04F0190E032425
:10F8BA00D96E000E0420DA6E10EE02F00150E12635
:10F8CA000250E222DE50E618D8A46EEF7CF070EF08
:10F8DA007CF08CEF7CF020EE04F00150D926025027
:10F8EA00DA22010EDF6E01C0D9FF02C0DAFFDECFD5
:10F8FA0003F0DDCF04F0010E0326000E042201C03E
:10F90A00D9FF02C0DAFF03C0DEFF04C0DDFF000E2C
:10F91A00266EF0EF7DF001C0D9FF02C0DAFFDECF1C
:10F92A0003F0DDCF04F0190E0324D96E000E042073
:10F93A00DA6EB0EC79F0DF6E20EE04F00150D926D1
:10F94A000250DA22020EDF6E01C0D9FF02C0DAFFCE
:10F95A00DECF03F0DDCF04F0010E0326000E0422F1
:10F96A0001C0D9FF02C0DAFF03C0DEFF04C0DDFF19
:10F97A00F0EF7DF001C0D9FF02C0DAFFDECF03F05D
:10F98A00DDCF04F0190E0324D96E000E0420DA6EBE
:10F99A00B0EC79F0DF6E20EE04F00150D926025067
:10F9AA00DA22030EDF6E01C0D9FF02C0DAFFDECF12
:10F9BA0003F0DDCF04F0010E0326000E042201C07D
:10F9CA00D9FF02C0DAFF03C0DEFF04C0DDFFF0EF9B
:10F9DA007DF001C0D9FF02C0DAFFDECF03F0DDCF30
:10F9EA0004F0190E0324D96E000E0420DA6EB0EC6E
:10F9FA0079F0DF6E20EE04F00150D9260250DA22A7
:10FA0A00040EDF6E01C0D9FF02C0DAFFDECF03F0B9
:10FA1A00DDCF04F0010E0326000E042201C0D9FF37
:10FA2A0002C0DAFF03C0DEFF04C0DDFFF0EF7DF0A5
:10FA3A0001C0D9FF02C0DAFFDECF03F0DDCF04F048
:10FA4A00190E0324D96E000E0420DA6EB0EC79F098
:10FA5A00DF6E20EE04F00150D9260250DA22050E9C
:10FA6A00DF6E01C0D9FF02C0DAFFDECF03F0DDCFBF
:10FA7A0004F0010E0326000E042201C0D9FF02C0C1
:10FA8A00DAFF03C0DEFF04C0DDFFF0EF7DF001C046
:10FA9A00D9FF02C0DAFFDECF03F0DDCF04F0190E82
:10FAAA000324D96E000E0420DA6EB0EC79F0DF6E12
:10FABA0020EE04F00150D9260250DA22060EDF6E3B
:10FACA0001C0D9FF02C0DAFFDECF03F0DDCF04F0B8
:10FADA00010E0326000E042201C0D9FF02C0DAFF7C
:10FAEA0003C0DEFF04C0DDFFF0EF7DF001C0D9FFE7
:10FAFA0002C0DAFFDECF03F0DDCF04F0190E0324D3
:10FB0A00D96E000E0420DA6EB0EC79F0DF6E01C017
:10FB1A00D9FF02C0DAFFDECF03F0DDCF04F0190E01
:10FB2A000324D96E000E0420DA6E10EE03F00150A1
:10FB3A00E1260250E222DE50E618D8A4A7EF7DF0B3
:10FB4A00A9EF7DF0ADEF7DF0010E256EAFEF7DF0F0
:10FB5A00010E266E20EE04F00150D9260250DA2258
:10FB6A00000EDF6E01C0D9FF02C0DAFF000EDE6EA2
:10FB7A00000EDD6EF0EF7DF020EE04F00150D92684
:10FB8A000250DA22DF50036E046A0450000AD8B425
:10FB9A00D1EF7DF0F0EF7DF00350000AD8B442EFC8
:10FBAA007CF0010AD8B490EF7CF0030AD8B4BFEF16
:10FBBA007CF0010AD8B4EEEF7CF0070AD8B41DEF46
:10FBCA007DF0010AD8B44CEF7DF0030AD8B47BEF7C
:10FBDA007DF0F0EF7DF012001AC001F0026A270EE4
:10FBEA00046E100E036E88EC79F01C50640DF3CF8E
:10FBFA0008F0F4CF09F01D500A0DF3500826F4500E
:10FC0A00092201500826025009221BC001F0026A8B
:10FC1A00030E046EE80E036E88EC79F00150082694
:10FC2A00025009221E500826000E0922B00E08248E
:10FC3A00226EDC0E0920236EF40E225C010E23587C
:10FC4A00D8A02AEF7EF02CEF7EF047EF7EF0050E6B
:10FC5A00225C100E2358D8B035EF7EF037EF7EF0D5
:10FC6A0047EF7EF0F00EB16E22C008F023C009F013
:10FC7A00040E0A6ED890093208320A2E3FEF7EF03F
:10FC8A000850246E050E225C100E2358D8A050EF9F
:10FC9A007EF052EF7EF06DEF7EF0090E225C200EB0
:10FCAA002358D8B05BEF7EF05DEF7EF06DEF7EF00B
:10FCBA00F10EB16E22C008F023C009F0050E0A6EDB
:10FCCA00D890093208320A2E65EF7EF00850246E69
:10FCDA00090E225C200E2358D8A076EF7EF078EF2A
:10FCEA007EF091EF7EF0A90E225C2F0E2358D8B039
:10FCFA0081EF7EF083EF7EF091EF7EF0F20EB16E2F
:10FD0A0022C001F023C002F0000E046E300E036E12
:10FD1A0094EC7AF00150246EA90E225C2F0E23581F
:10FD2A00D8A09AEF7EF09CEF7EF0B7EF7EF0490EF6
:10FD3A00225C3F0E2358D8B0A5EF7EF0A7EF7EF0E5
:10FD4A00B7EF7EF0F30EB16E22C008F023C009F0BF
:10FD5A00060E0A6ED890093208320A2EAFEF7EF0EC
:10FD6A000850246E490E225C3F0E2358D8A0C0EFDB
:10FD7A007EF0C2EF7EF0DBEF7EF0B10E225C4F0E1A
:10FD8A002358D8B0CBEF7EF0CDEF7EF0DBEF7EF0DC
:10FD9A00F40EB16E22C001F023C002F0000E046E10
:10FDAA00500E036E94EC7AF00150246EB10E225C70
:10FDBA004F0E2358D8A0E4EF7EF0E6EF7EF0FFEF77
:10FDCA007EF0B50E225C5F0E2358D8B0EFEF7EF0BE
:10FDDA00F1EF7EF0FFEF7EF0F50EB16E22C001F07A
:10FDEA0023C002F0000E046E600E036E94EC7AF0EB
:10FDFA000150246EB50E225C5F0E2358D8A008EF7E
:10FE0A007FF00AEF7FF023EF7FF0B90E225C6F0ECE
:10FE1A002358D8B013EF7FF015EF7FF023EF7FF070
:10FE2A00F60EB16E22C001F023C002F0000E046E7D
:10FE3A00700E036E94EC7AF00150246EB90E225CB7
:10FE4A006F0E2358D8A02CEF7FF02EEF7FF049EFEA
:10FE5A007FF0BD0E225C7F0E2358D8B037EF7FF0BB
:10FE6A0039EF7FF049EF7FF0F70EB16E22C008F04C
:10FE7A0023C009F0070E0A6ED890093208320A2EFA
:10FE8A0041EF7FF00850246EBD0E225C7F0E23588E
:10FE9A00D8A052EF7FF054EF7FF06DEF7FF0C10EE4
:10FEAA00225C8F0E2358D8B05DEF7FF05FEF7FF0B2
:10FEBA006DEF7FF0F80EB16E22C001F023C002F0A0
:10FECA00000E046E900E036E94EC7AF00150246ECC
:10FEDA00C10E225C8F0E2358D8A076EF7FF078EF00
:10FEEA007FF091EF7FF0A50E225C9C0E2358D8B0CC
:10FEFA0081EF7FF083EF7FF091EF7FF0F90EB16E23
:10FF0A0022C001F023C002F0000E046EA00E036EA0
:10FF1A0094EC7AF00150246EA50E225C9C0E2358B4
:10FF2A00D8A09AEF7FF09CEF7FF0B5EF7FF0C90E73
:10FF3A00225CAF0E2358D8B0A5EF7FF0A7EF7FF071
:10FF4A00B5EF7FF0FA0EB16E22C001F023C002F0C5
:10FF5A00000E046EB00E036E94EC7AF00150246E1B
:10FF6A00C90E225CAF0E2358D8A0BEEF7FF0C0EFB7
:10FF7A007FF0D9EF7FF0CD0E225CBF0E2358D8B0A8
:10FF8A00C9EF7FF0CBEF7FF0D9EF7FF0FB0EB16EB8
:10FF9A0022C001F023C002F0000E046EC00E036EF0
:10FFAA0094EC7AF00150246ECD0E225CBF0E2358D9
:10FFBA00D8A0E2EF7FF0E4EF7FF0FDEF7FF0D10E03
:10FFCA00225CCF0E2358D8B0EDEF7FF0EFEF7FF031
:10FFDA00FDEF7FF0FC0EB16E22C001F023C002F0EB
:10FFEA00000E046ED00E036E94EC7AF00150246E6B
:06FFFA0024C0B0FF12005C
:020000040020DA
:10000000FF0FFF0FFF0FFF0FFF0FFF0FFF0FFF0F80
:020000040030CA
:0C0000008CFFFFFF9FFFFFFFFFFFFFFFD3
:00000001FF
