:0400000032EF7EF06D
:10FC460001C011F002C012F0120001C015F002C08E
:10FC560016F0120001C013F002C014F01200176A69
:10FC6600000EF86E000140EF7FF020EE08F0015024
:10FC7600D9260250DA22FD0EDF16120020EE08F019
:10FC86000150D9260250DA22DF50020B1200600E14
:10FC96000E01D86F000EDA6F000EDC6F080EDE6FF5
:10FCA600000EDD6F120063EC7EF000EC7FF04AEC94
:10FCB6007EF0D8EC7EF071EC7EF096EC7EF01200D1
:10FCC600000E0E01E16F000EE26F000EE36F000EF4
:10FCD600E46F000EE56F000EE66F1200030EB36EC2
:10FCE600200EB26E000EB46EC70EB06E000EAF6E72
:10FCF6000E01CE9BA70EB16E12000E01CEBB86EF93
:10FD06007EF089EF7EF0010E8AEF7EF0000E016E26
:10FD16000150D8B491EF7EF093EF7EF094EF7EF031
:10FD2600CE9B01501200080E9F6E900E9D6E240E03
:10FD36009E6E8A0E9B6E000E9C6E000E016E000E6D
:10FD4600026E28EC7EF0000E016E000E026E2DECA7
:10FD56007EF0000E016E000E026E23EC7EF0000EA9
:10FD6600176E120020EE08F00150D9260250DA2252
:10FD7600000EDB8020EE08F00150D9260250DA2270
:10FD8600FD0EDF1620EE02F00150D9260250DA22CF
:10FD960003C0DEFF04C0DDFF01C0E1FF02C0E2FFD9
:10FDA600DECFE6FFDDCFE5FF1200000E6A6E000E25
:10FDB6006B6E000E6C6E000E6D6E000E686E000EA1
:10FDC600696E000E666E080E0F015F6F000E5D6FA6
:10FDD600000E5E6F000E596F000E5A6F000E5B6FBD
:10FDE600000E656E000E586F000E566F1F0E576F91
:10FDF600840E606E010E5C6F1200000E876E000EA0
:10FE0600866E000E836E000E846E000E856E070EE3
:10FE16008C6E88688968FD0E8A6EFC0E8B6E0F01EB
:10FE26002669FE0E216F1969070E2E6F1169000EE5
:10FE3600256F000E2D6F000E186F000E106F000E4E
:10FE4600206F000E2C6F000E0F6F000E176F000E46
:10FE56001F6F000E246F0E6916691E692369070E4F
:10FE66002B6F0D6915691D6922690F0E2A6F100E19
:10FE76000E01B56F090EF86F120056EC7EF0080EF3
:10FE8600016E000E026E270E046E100E036EB5ECA8
:10FE96007EF08690868280EC7EF00009D8B456EF1C
:10FEA6007FF058EF7FF05EEF7FF0080E016E000ED8
:10FEB600026E97EC7FF0080E016E000E026E41ECAA
:10FEC6007EF00009D8B46AEF7FF06CEF7FF04EEF5A
:10FED6007FF0080E016E000E026E38EC7EF086B0E2
:10FEE60077EF7FF07AEF7FF0010E7BEF7FF0000E69
:10FEF600FF0A076E86500718FE0B0718866E86B235
:10FF060087EF7FF08AEF7FF0010E8BEF7FF0000E18
:10FF1600FF0A076E074686500718FD0B0718866E00
:10FF26004EEF7FF000EF00F020EE08F00150D926EA
:10FF36000250DA22DFA0A2EF7FF0A4EF7FF0CEEF2F
:10FF46007FF001C0D9FF02C0DAFFDE06000EDD5ADF
:10FF560001C0D9FF02C0DAFFDE50DE10D8A4B6EF2A
:10FF66007FF0B8EF7FF0CEEF7FF020EE08F0015083
:10FF7600D9260250DA22000EDB8220EE02F0015072
:10FF8600D9260250DA2201C0E1FF02C0E2FFDECF2D
:10FF9600E6FFDDCFE5FF20EE04F00150D926025042
:10FFA600DA22DE50DE10DE10DE10D8B4DDEF7FF090
:10FFB600DFEF7FF0FFEF7FF020EE04F00150D9264F
:10FFC6000250DA22FF0EDE24036EFF0EDE20046EE0
:10FFD600FF0EDE20056EFF0EDE20066E20EE04F01C
:10FFE6000150D9260250DA2203C0DEFF04C0DEFF2C
:0AFFF60005C0DEFF06C0DEFF1200AA
:020000040020DA
:10000000FF0FFF0FFF0FFF0FFF0FFF0FFF0FFF0F80
:020000040030CA
:0C0000008CFFFFFF9FFFFFFFFFFFFFFFD3
:00000001FF
