:040000007EEF79F026
:10F2A00001C028F002C029F0120001C02CF002C0F9
:10F2B0002DF0120001C02AF002C02BF012006450A1
:10F2C000046E036A63500324016E000E0420026E74
:10F2D000120060A06EEF79F071EF79F0010E72EF1D
:10F2E00079F0000E12000E01CDBB79EF79F07CEFC2
:10F2F00079F0010E7DEF79F0000E120000EE18F0AB
:10F30000100EEE6AE806FDE1000EF86E0001ACEFAB
:10F310007BF0016E0E01CDA990EF79F092EF79F0BC
:10F320008AEF79F001C09AFF1200600E0E01D86FCB
:10F33000000EDA6F000EDC6F030EDE6F000EDD6F65
:10F340001200AEEC79F0FBEC7AF095EC79F067EC1A
:10F350007AF0BCEC79F027EC7AF01200000E0E0186
:10F36000E16F000EE26F000EE36F000EE46F000E1F
:10F37000E56F000EE66F1200030EB36E200EB26E44
:10F38000000EB46E040EB06E000EAF6E0E01CE9B7A
:10F39000FC0EB16E120001500302F3CF05F0F4CF62
:10F3A00006F001500402F350062602500302F35007
:10F3B000062605C001F006C002F01200000E016E24
:10F3C0000E01CDA9E6EF79F0E8EF79F0F1EF79F0F1
:10F3D0009EAAEDEF79F0EFEF79F0F1EF79F0010E01
:10F3E000016E015012000E01CDABF9EF79F0FBEF89
:10F3F00079F0F3EF79F0000E276E9DA202EF7AF01C
:10F4000004EF7AF006EF7AF09D989D8899501200EB
:10F4100001C0D9FF02C0DAFF000EDF6E20EE01F05E
:10F420000150D9260250DA22000EDF6E20EE02F0E3
:10F430000150D9260250DA22000EDF6E20EE03F0D2
:10F440000150D9260250DA22000EDF6E1200080E9B
:10F450009F6E900E9D6E240E9E6E220E9B6E000E71
:10F460009C6E000E016E000E026E55EC79F0000EDF
:10F47000016E000E026E5AEC79F0000E016E000E65
:10F48000026E50EC79F0000E276E120001C0D9FF19
:10F4900002C0DAFF000EDE6E000EDD6E20EE02F01E
:10F4A0000150D9260250DA22230EDF6E20EE03F03F
:10F4B0000150D9260250DA222A0EDF6E20EE04F027
:10F4C0000150D9260250DA22000EDF6E1200000E23
:10F4D0006A6E000E6B6E000E6C6E000E6D6E000E8E
:10F4E000686E000E696E000E666E080E0F015F6F8B
:10F4F000000E5D6F000E5E6F000E596F000E5A6FAA
:10F50000000E5B6F000E656E000E586F080E566F92
:10F51000070E576F840E606E010E5C6F1200035071
:10F520000410D8B496EF7AF098EF7AF0BCEF7AF046
:10F53000010E056EA0EF7AF0D89003360436052A46
:10F5400004AEA5EF7AF0A7EF7AF09CEF7AF00350C3
:10F55000015C04500258D8A0B0EF7AF0B2EF7AF014
:10F56000B6EF7AF00350015E0450025AD89004328C
:10F570000332052EA7EF7AF001C001F002C002F0BD
:10F580001200000E066E000E056E03500410D8B473
:10F59000CCEF7AF0CEEF7AF0F6EF7AF0010E076E4C
:10F5A000D6EF7AF0D89003360436072A04AEDBEFA4
:10F5B0007AF0DDEF7AF0D2EF7AF0D89005360636A1
:10F5C0000350015C04500258D8A0E9EF7AF0EBEF49
:10F5D0007AF0F0EF7AF00350015E0450025A058091
:10F5E000D89004320332072EDDEF7AF005C001F027
:10F5F00006C002F01200000E876E000E866E000E2E
:10F60000836E000E846E000E856E070E8C6E886809
:10F610008968FD0E8A6EFC0E8B6E0F012669FE0E48
:10F62000216F1969070E2E6F1169000E256F000EEC
:10F630002D6F000E186F000E106F000E206F000E61
:10F640002C6F000E0F6F000E176F000E1F6F000E55
:10F65000246F0E6916691E692369070E2B6F0D69E9
:10F6600015691D6922690F0E2A6F100E0E01B56F04
:10F67000090EF86F120020EE03F00850D926095049
:10F68000DA220AC001F00BC002F0000E046E0A0E6E
:10F69000036E8FEC7AF00150DF6E0AC001F00BC0F0
:10F6A00002F0000E046E0A0E036EC1EC7AF001C087
:10F6B0000AF002C00BF020EE02F00850D9260950E3
:10F6C000DA220AC001F00BC002F0000E046E0A0E2E
:10F6D000036E8FEC7AF00150DF6E0AC001F00BC0B0
:10F6E00002F0000E046E0A0E036EC1EC7AF001C047
:10F6F0000AF002C00BF020EE01F00850D9260950A4
:10F70000DA220AC001F00BC002F0000E046E0A0EED
:10F71000036E8FEC7AF00150DF6E0AC001F00BC06F
:10F7200002F0000E046E0A0E036EC1EC7AF001C006
:10F730000AF002C00BF00AC001F00BC002F0000E8C
:10F74000046E0A0E036E8FEC7AF0015008C0D9FFE8
:10F7500009C0DAFFDF6E1200A1EC79F0130E016E22
:10F76000000E026E46EC7AF00F0E016E000E026E75
:10F7700008EC7AF067EC7AF0000E0E6EDE0EB06EDA
:10F78000F60EB16E8690869273EC79F00009D8B4CB
:10F79000CCEF7BF0CEEF7BF0D4EF7BF0130E016E5D
:10F7A000000E026E28EC7CF02504D8A4DAEF7BF082
:10F7B000DCEF7BF0E1EF7BF08680000E256ED9EC6C
:10F7C0007DF069EC79F00009D8B4E9EF7BF0EBEF5C
:10F7D0007BF0FDEF7BF05FEC79F001C00CF002C034
:10F7E0000DF00F0E086E000E096E0CC00AF00DC071
:10F7F0000BF03BEC7BF0010E0E6E0E50D8B403EF15
:10F800007CF005EF7CF0C4EF7BF0DEEC79F00009D2
:10F81000D8B40DEF7CF00FEF7CF0C4EF7BF0000E5E
:10F820000E6E0F50300F89EC79F01050300F89ECCC
:10F8300079F01150300F89EC79F01250300F89ECCB
:10F8400079F00D0E89EC79F0C4EF7BF000EF00F059
:10F85000A9EF7DF001C0D9FF02C0DAFFDECF03F0CF
:10F86000DDCF04F0180E0324D96E000E0420DA6EEA
:10F87000F3EC79F0DF6E01C0D9FF02C0DAFFDECF12
:10F8800003F0DDCF04F0180E0324D96E000E04201F
:10F89000DA6E10EE02F00150E1260250E222DE5054
:10F8A000E618D8A456EF7CF058EF7CF074EF7CF0AB
:10F8B00020EE04F00150D9260250DA22010EDF6E4C
:10F8C00001C0D9FF02C0DAFFDECF03F0DDCF04F0C4
:10F8D000010E0326000E042201C0D9FF02C0DAFF88
:10F8E00003C0DEFF04C0DDFF000E266ED8EF7DF002
:10F8F00001C0D9FF02C0DAFFDECF03F0DDCF04F094
:10F90000180E0324D96E000E0420DA6EF3EC79F0A1
:10F91000DF6E20EE04F00150D9260250DA22020EEA
:10F92000DF6E01C0D9FF02C0DAFFDECF03F0DDCF0A
:10F9300004F0010E0326000E042201C0D9FF02C00C
:10F94000DAFF03C0DEFF04C0DDFFD8EF7DF001C0A9
:10F95000D9FF02C0DAFFDECF03F0DDCF04F0180ECE
:10F960000324D96E000E0420DA6EF3EC79F0DF6E1A
:10F9700020EE04F00150D9260250DA22030EDF6E89
:10F9800001C0D9FF02C0DAFFDECF03F0DDCF04F003
:10F99000010E0326000E042201C0D9FF02C0DAFFC7
:10F9A00003C0DEFF04C0DDFFD8EF7DF001C0D9FF4A
:10F9B00002C0DAFFDECF03F0DDCF04F0180E03241F
:10F9C000D96E000E0420DA6EF3EC79F0DF6E20EED3
:10F9D00004F00150D9260250DA22040EDF6E01C075
:10F9E000D9FF02C0DAFFDECF03F0DDCF04F0010E55
:10F9F0000326000E042201C0D9FF02C0DAFF03C0B3
:10FA0000DEFF04C0DDFFD8EF7DF001C0D9FF02C0EA
:10FA1000DAFFDECF03F0DDCF04F0180E0324D96E39
:10FA2000000E0420DA6EF3EC79F0DF6E20EE04F0C5
:10FA30000150D9260250DA22050EDF6E01C0D9FF2F
:10FA400002C0DAFFDECF03F0DDCF04F0010E0326A3
:10FA5000000E042201C0D9FF02C0DAFF03C0DEFF9E
:10FA600004C0DDFFD8EF7DF001C0D9FF02C0DAFF8E
:10FA7000DECF03F0DDCF04F0180E0324D96E000EA4
:10FA80000420DA6EF3EC79F0DF6E20EE04F0015022
:10FA9000D9260250DA22060EDF6E01C0D9FF02C05D
:10FAA000DAFFDECF03F0DDCF04F0010E0326000EF7
:10FAB000042201C0D9FF02C0DAFF03C0DEFF04C088
:10FAC000DDFFD8EF7DF001C0D9FF02C0DAFFDECF45
:10FAD00003F0DDCF04F0180E0324D96E000E0420CD
:10FAE000DA6EF3EC79F0DF6E01C0D9FF02C0DAFF05
:10FAF000DECF03F0DDCF04F0180E0324D96E000E24
:10FB00000420DA6E10EE03F00150E1260250E222EA
:10FB1000DE50E618D8A48FEF7DF091EF7DF095EFE1
:10FB20007DF0010E256E97EF7DF0010E266E20EE22
:10FB300004F00150D9260250DA22000EDF6E01C017
:10FB4000D9FF02C0DAFF000EDE6E000EDD6ED8EFC8
:10FB50007DF020EE04F00150D9260250DA22DF5069
:10FB6000036E046A0450000AD8B4B9EF7DF0D8EFF0
:10FB70007DF00350000AD8B42AEF7CF0010AD8B413
:10FB800078EF7CF0030AD8B4A7EF7CF0010AD8B470
:10FB9000D6EF7CF0070AD8B405EF7DF0010AD8B49F
:10FBA00034EF7DF0030AD8B463EF7DF0D8EF7DF039
:10FBB000120019C001F0026A270E046E100E036EC7
:10FBC000CBEC79F01B50640DF3CF08F0F4CF09F0C3
:10FBD0001C500A0DF3500826F45009220150082643
:10FBE000025009221AC001F0026A030E046EE80EE8
:10FBF000036ECBEC79F001500826025009221D500B
:10FC00000826000E0922B00E0824216EDC0E092001
:10FC1000226EF40E215C010E2258D8A012EF7EF065
:10FC200014EF7EF031EF7EF0050E215C100E2258AD
:10FC3000D8B01DEF7EF01FEF7EF031EF7EF0F00EBA
:10FC4000B16E21C008F022C009F0040E0A6ED890EF
:10FC5000093208320A2E27EF7EF008C023F009C0CF
:10FC600024F0050E215C100E2258D8A03AEF7EF049
:10FC70003CEF7EF059EF7EF0090E215C200E2258F9
:10FC8000D8B045EF7EF047EF7EF059EF7EF0F10EF1
:10FC9000B16E21C008F022C009F0050E0A6ED8909E
:10FCA000093208320A2E4FEF7EF008C023F009C057
:10FCB00024F0090E215C200E2258D8A062EF7EF0BD
:10FCC00064EF7EF07FEF7EF0A90E215C2F0E2258AC
:10FCD000D8B06DEF7EF06FEF7EF07FEF7EF0F20E2A
:10FCE000B16E21C001F022C002F0000E046E300E91
:10FCF000036EC1EC7AF001C023F002C024F0A90E1B
:10FD0000215C2F0E2258D8A088EF7EF08AEF7EF07B
:10FD1000A7EF7EF0490E215C3F0E2258D8B093EF3A
:10FD20007EF095EF7EF0A7EF7EF0F30EB16E21C06E
:10FD300008F022C009F0060E0A6ED8900932083287
:10FD40000A2E9DEF7EF008C023F009C024F0490E72
:10FD5000215C3F0E2258D8A0B0EF7EF0B2EF7EF0CB
:10FD6000CDEF7EF0B10E215C4F0E2258D8B0BBEF24
:10FD70007EF0BDEF7EF0CDEF7EF0F40EB16E21C0CF
:10FD800001F022C002F0000E046E500E036EC1ECB2
:10FD90007AF001C023F002C024F0B10E215C4F0EB6
:10FDA0002258D8A0D6EF7EF0D8EF7EF0F3EF7EF0A9
:10FDB000B50E215C5F0E2258D8B0E1EF7EF0E3EF84
:10FDC0007EF0F3EF7EF0F50EB16E21C001F022C09F
:10FDD00002F0000E046E600E036EC1EC7AF001C0FA
:10FDE00023F002C024F0B50E215C5F0E2258D8A08B
:10FDF000FCEF7EF0FEEF7EF019EF7FF0B90E215C94
:10FE00006F0E2258D8B007EF7FF009EF7FF019EF9F
:10FE10007FF0F60EB16E21C001F022C002F0000E9C
:10FE2000046E700E036EC1EC7AF001C023F002C0C4
:10FE300024F0B90E215C6F0E2258D8A022EF7FF07B
:10FE400024EF7FF041EF7FF0BD0E215C7F0E225842
:10FE5000D8B02DEF7FF02FEF7FF041EF7FF0F70E5E
:10FE6000B16E21C008F022C009F0070E0A6ED890CA
:10FE7000093208320A2E37EF7FF008C023F009C09C
:10FE800024F0BD0E215C7F0E2258D8A04AEF7FF0EF
:10FE90004CEF7FF067EF7FF0C10E215C8F0E225890
:10FEA000D8B055EF7FF057EF7FF067EF7FF0F80E97
:10FEB000B16E21C001F022C002F0000E046E900E5F
:10FEC000036EC1EC7AF001C023F002C024F0C10E31
:10FED000215C8F0E2258D8A070EF7FF072EF7FF078
:10FEE0008DEF7FF0A50E215C9C0E2258D8B07BEFE1
:10FEF0007FF07DEF7FF08DEF7FF0F90EB16E21C0C6
:10FF000001F022C002F0000E046EA00E036EC1ECE0
:10FF10007AF001C023F002C024F0A50E215C9C0EF3
:10FF20002258D8A096EF7FF098EF7FF0B3EF7FF0E4
:10FF3000C90E215CAF0E2258D8B0A1EF7FF0A3EF1D
:10FF40007FF0B3EF7FF0FA0EB16E21C001F022C056
:10FF500002F0000E046EB00E036EC1EC7AF001C028
:10FF600023F002C024F0C90E215CAF0E2258D8A0A5
:10FF7000BCEF7FF0BEEF7FF0D9EF7FF0CD0E215CBC
:10FF8000BF0E2258D8B0C7EF7FF0C9EF7FF0D9EF8E
:10FF90007FF0FB0EB16E21C001F022C002F0000E16
:10FFA000046EC00E036EC1EC7AF001C023F002C0F3
:10FFB00024F0CD0E215CBF0E2258D8A0E2EF7FF0D6
:10FFC000E4EF7FF0FFEF7FF0D10E215CCF0E2258DF
:10FFD000D8B0EDEF7FF0EFEF7FF0FFEF7FF0FC0E9A
:10FFE000B16E21C001F022C002F0000E046ED00EEE
:10FFF000036EC1EC7AF001C023F002C024F01200BD
:020000040020DA
:10000000FF0FFF0FFF0FFF0FFF0FFF0FFF0FFF0F80
:020000040030CA
:0C0000008CFFFFFF9FFFFFFFFFFFFFFFD3
:00000001FF
