:08000000803102288731F22F44
:10000A001630210097000800083023009F00903026
:10001A009D0024309E0040309B0003309C0000303D
:10002A00F0000030F1008F312E2780310030F000CF
:10003A000030F1008F31342780310030F000003079
:10004A00F1008F31282780312000EF010800F200EB
:10005A00422822000D108D118D12582822000D14ED
:10006A008D118D12582822000D108D158D125828C9
:10007A0022000D108D118D1658287208F000F1011A
:10008A007108003A03194A2858287008003A0319D7
:10009A002E28013A03193328033A03193828013A5A
:1000AA0003193D28582808007008710403195E28AE
:1000BA005F288828F501F50A6B280130F035F10D23
:1000CA00890B63280130F4007408F507F11F6E28C4
:1000DA006F28622871087302031D7528700872025E
:1000EA00031C782879287D287008F2027108F33BEE
:1000FA000130F136F00C890B7E280130F502031D20
:10010A00872888286F287308F1007208F000080011
:10011A00F501F60170087104031994289528C4287A
:10012A00F701F70AA1280130F035F10D890B99285A
:10013A000130F4007408F707F11FA428A5289828AD
:10014A000130F535F60D890BA62871087302031DD7
:10015A00B02870087202031CB328B428B9287008A2
:10016A00F2027108F33B75140130F136F00C890B79
:10017A00BA280130F702031DC328C428A528760827
:10018A00F1007508F00008003F302000CA007930FD
:10019A00C900FE30C8008730C7004508F00046088D
:1001AA00F100F201F3010030833102238031730838
:1001BA002000A7007208A6007108A5007008A40014
:1001CA004A08A3004908A2004808A1004708A0005D
:1001DA0085319B25803120002308BD002208BC0000
:1001EA002108BB002008BA008131FC21803120009F
:1001FA003B08CC003A08CB004C08C6004B08C500A7
:10020A000800F6007608860087018101810A7008D5
:10021A00F500760A86008701750881007108F500E5
:10022A007608023E86008701750881007208F5008B
:10023A007608033E86008701750881007308F50079
:10024A007608043E86008701750881007408F50067
:10025A007608053E86008701750881007308F50057
:10026A007608063E86008701750881007408F50045
:10027A007608073E86008701750881000800FB00A2
:10028A000A30F0000030F1007908F3007808F20033
:10029A008031592081317008FA007B0A8600870173
:1002AA007A0881000A30F0000030F1007908F30082
:1002BA007808F20080318D2081317108F9007008C8
:1002CA00F8000A30F0000030F1007908F3007808ED
:1002DA00F2008031592081317008FA007B08023E11
:1002EA00860087017A0881000A30F0000030F100A8
:1002FA007908F3007808F20080318D208131710885
:10030A00F9007008F8000A30F0000030F1007908AE
:10031A00F3007808F2008031592081317008FA0020
:10032A007B08033E860087017A0881000800F400F2
:10033A007408083E86008701011CA429A529C7293B
:10034A007408860087010130810241310030813B07
:10035A007F3174088600870116000104031DB6293F
:10036A00B729C7297408083E8600870181147408D2
:10037A00023E86008701740884008501403F803F61
:10038A00413F813F7408043E86008701403FF000E8
:10039A00413FF100423FF200433FF3007308720409
:1003AA00710470040319DA29DB29FB29FF30F000F4
:1003BA00FF30F100FF30F200FF30F3007408043E12
:1003CA0086008701403FF007413FF13D423FF23D41
:1003DA00433FF33D7408043E860087017008C03F1E
:1003EA007108C13F7208C23F7308C33F0800031077
:1003FA0020003C0D3D0DBE003E08C4004408031D0C
:10040A00072A082A112A0030BD000030BC0000303B
:10041A00BB000030BA00702A3A08BE003B08BF0091
:10042A003C08C0003D08C1001F30C136C00CBF0CDB
:10043A00BE0C890B1A2A3E08C2004208C300BC1728
:10044A00FF30BA05FF30BB05FF30BC050030BD05E3
:10045A009630C402C41F322A332A4B2A4408803AEF
:10046A00973E0318392A3A2A3B2A082A0130BD3610
:10047A00BC0CBB0CBA0C890B3C2A0130BE003E08EE
:10048A00C407031D492A4A2A3B2A602A203044020B
:10049A00031C502A512A5B2A082A0130BA35BB0D9F
:1004AA00BC0DBD0D890B532A0130C4024408031D3B
:1004BA005F2A602A522A43080319642A652A702A85
:1004CA00BA09BB09BC09BD09BA0A0319BB0A03194F
:1004DA00BC0A0319BD0A0800F200D62A22000C142D
:1004EA008C140C158C150C160C178C13012B22006E
:1004FA000C108C140C158C110C120C138C13012B70
:10050A0022000C148C140C118C150C160C138C175D
:10051A00012B22000C148C140C158C150C120C13C4
:10052A008C17012B22000C108C140C158C110C1238
:10053A000C178C17012B22000C148C100C158C151F
:10054A000C120C178C17012B22000C148C100C1592
:10055A008C150C160C178C17012B22000C148C14FA
:10056A000C158C110C120C178C13012B22000C1475
:10057A008C140C158C150C160C178C17012B2200D9
:10058A000C148C140C158C110C120C178C17012BD3
:10059A0022000C148C140C158C150C160C178C17C5
:1005AA00012B7208F000F1017108003A0319DE2AE2
:1005BA00012B7008003A0319732A013A03197C2A9D
:1005CA00033A0319852A013A03198E2A073A0319AD
:1005DA00972A013A0319A02A033A0319A92A013AC8
:1005EA000319B22A0F3A0319BB2A013A0319C42A7A
:1005FA00033A0319CD2A012B0800F80078080319D9
:10060A00072B082B1C2BF31F0B2B0C2B1C2B7009F5
:10061A00FA007109FB007209FC007309FD00FA0A6D
:10062A000319FB0A0319FC0A0319FD0A242B730890
:10063A00FD007208FC007108FB007008FA007308DC
:10064A00720471047004031D2B2B2C2B352B0030E4
:10065A00F3000030F2000030F1000030F000AD2B62
:10066A009630F4007408F900452B0130F400740840
:10067A00F9070130FD36FC0CFB0CFA0C890B3F2BF9
:10068A00FE307D05031D4A2B4B2B3A2B5F2B013085
:10069A00F4007408F9070130FA070030FB3D003016
:1006AA00FC3D0030FD3D0130FD36FC0CFB0CFA0C24
:1006BA00890B592BFF307D05031D642B652B4C2BB1
:1006CA006F2B0130F9020130FA35FB0DFC0DFD0DDF
:1006DA00890B692BFC1B722B732B792B0230790245
:1006EA000318782B792B662B79187C2B7D2B852B7D
:1006FA00FF30FA05FF30FB057F30FC05FF30FD05B2
:10070A000310F90C7908F400F501F601F701183025
:10071A00F435F50DF60DF70D890B8D2B7408FA04D7
:10072A007508FB047608FC047708FD0478080319A9
:10073A009F2BA02BA52BF31FA32BA42BA52BFD17B7
:10074A007D08F3007C08F2007B08F1007A08F000CB
:10075A0008002000D301D401DB018F3197278331B0
:10076A00E830F0000330F1005C308F31BF2783316D
:10077A008F314127833121001D0821389D001D0832
:10078A00A3399D00E0309E0004302000CD004D08C2
:10079A00F0000530CE004E08F1000630CF004F08B9
:1007AA00F2000430D0005008F300F401F40A653076
:1007BA008131062183318F311F2783318F317B2786
:1007CA008331003A0319EA2BEB2BF32B5C3081318E
:1007DA009C21833165308431712483315C308F31BF
:1007EA0049278331003A0319FB2BFC2B062C5C307A
:1007FA008F31652783318F311C2783312000DB013C
:10080A00DB0A20005B0803190B2C0C2C4A2C8F31B5
:10081A0088278331003A0319132C142C4A2C200000
:10082A00DB016808303ECD004D08D5002C30CD00E4
:10083A004D08D6006708303ECD004D08D70066083F
:10084A00303ECD004D08D8000D30CD004D08DA00FD
:10085A0055088F3151278331200056088F3151278F
:10086A008331200057088F315127833120005808DF
:10087A008F3151278331200059088F315127833115
:10088A0020005A088F31512783318F313A2783311B
:10089A00003A0319512C522CE32B8F312227833132
:1008AA0071082000D2007008D1005208C600510811
:1008BA00C5008031C920833120004608D40045088C
:1008CA00D3005408F9005308F800653081314421F7
:1008DA008331E32B80310228F5007B2D7508063E13
:1008EA0086008701013081027508063E860087016D
:1008FA000108031D812C822C952C0230F300750807
:10090A0086008701730881007508053E8600870105
:10091A000108F3007508073E860087017308810005
:10092A00013080312C208431750A86008701010844
:10093A008231712284319A2D7508073E860087011B
:10094A00013081027508073E860087010108031DF0
:10095A00AF2CB02CC32C0330F30075088600870136
:10096A00730881007508043E860087010108F300B8
:10097A007508063E860087017308810000308031C1
:10098A002C2084319A2D7508063E86008701013095
:10099A0081027508063E860087010108031DD62CD0
:1009AA00D72CEA2C0430F3007508860087017308F7
:1009BA0081007508053E860087010108F300750865
:1009CA00073E8600870173088100023080312C209F
:1009DA0084317508023E860087010108823171223E
:1009EA0084319A2D7508073E8600870101308102FD
:1009FA007508073E860087010108031D052D062D8F
:100A0A00192D0530F30075088600870173088100E7
:100A1A007508043E860087010108F3007508063E42
:100A2A008600870173088100003080312C208431D0
:100A3A009A2D7508063E86008701013081027508E5
:100A4A00063E860087010108031D2C2D2D2D402D01
:100A5A000630F3007508860087017308810075085F
:100A6A00053E860087010108F3007508073E8600E7
:100A7A00870173088100033080312C208431750886
:100A8A00033E8600870101088231712284319A2D42
:100A9A007508073E86008701013081027508073E06
:100AAA00860087010108031D5B2D5C2D6D2D7508DD
:100ABA00860087018101810A7508043E8600870144
:100ACA000108F3007508063E860087017308810055
:100ADA00003080312C2084319A2D0A3082317122E3
:100AEA008431023080312C208431722D75088600C1
:100AFA0087010108F300F4017408003A0319862DEE
:100B0A00722D7308013A0319732C033A0319A12CA5
:100B1A00013A0319C82C073A0319F72C013A0319A9
:100B2A001E2D033A03194D2D722D080020002308AB
:100B3A008039A8002808AD002335A8002808B3008A
:100B4A00A21FA82DA92DAA2D331433080319AE2DDF
:100B5A00AF2DBE2D330A031DB32DB42DBC2D00308D
:100B6A00A3000030A2000030A1000030A000A217AC
:100B7A00C62D0030A3000030A2000030A1000030D2
:100B8A00A00027088039A8002808AD062735A80044
:100B9A002808B200A61FD22DD32DD42D3214320824
:100BAA000319D82DD92DE82D320A031DDD2DDE2D8E
:100BBA00E62D0030A7000030A6000030A500003066
:100BCA00A400A617F02D0030A7000030A6000030C0
:100BDA00A5000030A40032080319F42DF52DFA2DD2
:100BEA003308031DF92DFA2D032E0030A30000301F
:100BFA00A2000030A1000030A000F12F2008A800B8
:100C0A002808F00026088F31DD2785317108200079
:100C1A00B9007008B8003808A800A901AA01AB01F8
:100C2A002B08B1002A08B0002908AF002808AE0036
:100C3A003908A800A901AA01AB012B08B7002A08A4
:100C4A00B6002908B5002808B4002108A800280819
:100C5A00F00025088F31DD27853171082000B900A1
:100C6A007008B8003808A800A901AA01AB01280831
:100C7A00AE072908AF3D2A08B03D2B08B13D390817
:100C8A00A800A901AA01AB012808B4072908B53DA3
:100C9A002A08B63D2B08B73D2208A8002808F0000C
:100CAA0024088F31DD27853171082000B9007008CA
:100CBA00B8003808A800A901AA01AB012808AE07A4
:100CCA002908AF3D2A08B03D2B08B13D3908A800D4
:100CDA00A901AA01AB012808B4072908B53D2A08C9
:100CEA00B63D2B08B73D0830AE35AF0DB00DB10D8E
:100CFA00890B792E2108A8002808F00024088F31D2
:100D0A00DD27853171082000B9007008B80038085D
:100D1A00AE073908AF3D0030B03DB13D2008A8000C
:100D2A002808F00025088F31DD2785317108200059
:100D3A00B9007008B8003808AE073908AF3D00306E
:100D4A00B03DB13D0830AE35AF0DB00DB10D890BD8
:100D5A00A82E2008A8002808F00024088F31DD27D3
:100D6A00853171082000B9007008B8003808AE074C
:100D7A003908AF3D0030B03DB13D2108A800280830
:100D8A00F00026088F31DD27853171082000B9006F
:100D9A007008B8003808B4073908B53D0030B63DC8
:100DAA00B73D2208A8002808F00025088F31DD2762
:100DBA00853171082000B9007008B8003808B407F6
:100DCA003908B53D0030B63DB73D2208A8002808CD
:100DDA00F00026088F31DD27853171082000B9001F
:100DEA007008B8003808A8003908A900AA01AB01A0
:100DFA000830A835A90DAA0DAB0D890BFE2E2808BF
:100E0A00B4072908B53D2A08B63D2B08B73D2E0878
:100E1A00A8002F08A9003008AA003108AB00183032
:100E2A00AB36AA0CA90CA80C890B152F2808B407F5
:100E3A002908B53D2A08B63D2B08B73D0830AE351E
:100E4A00AF0DB00DB10D890B242F33083207A8005E
:100E5A00A901A90D2808823EB800FF30293DB90032
:100E6A004D2F0130B435B50DB60DB70D890B372F9F
:100E7A00B11F402F412F422F34140130AE35AF0D30
:100E8A00B00DB10D890B432FFF30B807FF30B93DC4
:100E9A00B61F502F512F362FB201B11F552F562F83
:100EAA00722FFF302E05A800FF302F05A900FF3052
:100EBA003005AA007F303105AB002B082A0429042B
:100ECA0028040319692F6A2F6D2FB201B20A722FF3
:100EDA00341C702F712F722F6A2F32080319762F44
:100EEA00772F9F2F0130B4070030B53D0030B63D53
:100EFA000030B73D371C822F832F9F2F3408A8005C
:100F0A003508A9003608AA003708AB000130AC0042
:100F1A00AB37AA0CA90CA80CAC0B8D2F2B08B70069
:100F2A002A08B6002908B5002808B4000130B80715
:100F3A000030B93D3908803AA80080302802031DE4
:100F4A00A82FFF303802031CAB2FAC2FB62F7F30EF
:100F5A002000B7008030B6000030B5000030B40081
:100F6A00E52F20003908803AA80080302802031DA6
:100F7A00C02F013038020318C32FC42FCF2F0030DF
:100F8A002000B7000030B6000030B5000030B400D1
:100F9A00AD01E52F20003808A8002808B300FF306B
:100FAA00B405FF30B5057F30B6050030B705331CF0
:100FBA00DF2FE02FE12FB6173336A8002808B70035
:100FCA002D08A8002808B7043708A3003608A2008D
:100FDA003508A1003408A00008002000ED01EE0148
:100FEA00EF012100A001A101A201A301A401A50111
:060FFA0020008331AE2B44
:101E380021009D14080028001E15080021001C0818
:101E4800F1001B08F000080071082100A1007008CB
:101E5800A000080071082100A5007008A40008006F
:101E680071082100A3007008A200080003102100D7
:101E78009D1C03140030093D0800E03021009E003D
:101E88009B019C0123309D000800F0007008083E6B
:101E980086008701010802390800F0002000111EA1
:101EA800562F572F522F700823009A000800FF3032
:101EB80028009D009C0120009311043028009E00FA
:101EC8000800F100FD30F0007108083E8600870127
:101ED80070088105080070302100990098012200DF
:101EE800960121001A1F792F7A2F752F08000030CC
:101EF800200093190130F00070080319842F852FF2
:101F0800862F931170080800F0012000111E8D2FF4
:101F18008E2F952F23009E1E922F932F952FF00121
:101F2800F00A700808008F31AA278F318F316F2788
:101F38008F31803105208F318F315B278F318F3181
:101F480041278F31803109208F31080022008C0110
:101F58008D01203021008C00D6308D0010302300F8
:101F68008D008C0124008D018C0121009517220021
:101F78009D019E010800F3007308083E8600870152
:101F88000114FD30F2007308083E860087017208CC
:101F980081057308023E860087017008C03F7108FA
:101FA800C13F7308860087017008C03F7108C13FB0
:101FB8000800F800F401F5017008F200F301720856
:101FC800F6007308F700781CEA2FEB2FEF2F76083E
:101FD800F4077708F53D0130F635F70D890BF02F3A
:101FE8000310F80C7808031DFA2FFB2FE72F75084C
:081FF800F1007408F00008007C
:020000040001F9
:04000E00E43FFF3F8D
:00000001FF
