:08000000803102288731F22F44
:1001EE0021009D14080028001E150800143021005F
:1001FE009700080021001C08F1001B08F000080001
:10020E0071082100A1007008A000080071082100EB
:10021E00A5007008A400080071082100A300700852
:10022E00A2000800031021009D1C03140030093D9C
:10023E000800603021009E009B019C0101309D0052
:10024E000800F0002000111E2D292E2929297008E2
:10025E0023009A000800313028009D009C012000E8
:10026E0093114E3028009E00080070302100990036
:10027E0098012200960121001A1F4629472942297A
:10028E00080081315B21813181313C218131803106
:10029E00FD20813181313221813181312021813125
:1002AE008131B2218131080022008C018D01203074
:1002BE0021008C00D6308D00383023008D001F3089
:1002CE008C0024008D018C012100951722009D01C8
:1002DE009E010800F3007308083E86008701011492
:1002EE00FD30F2007308083E860087017208810512
:1002FE007308023E860087017008C03F7108C13F37
:10030E007308860087017008C03F7108C13F08005E
:10031E00F800F401F5017008F200F3017208F6001E
:10032E007308F700781C9C299D29A1297608F407EB
:10033E007708F53D0130F635F70D890BA22903102C
:10034E00F80C7808031DAC29AD2999297508F10020
:10035E007408F0000800083023009F0090309D00C4
:10036E0024309E0040309B0003309C000030F00093
:10037E000030F10081310D2181310030F00000306C
:10038E00F1008131132181310030F0000030F10095
:10039E008131072181312000EE010800F200EB29A6
:1003AE0022000D108D118D12012A22000D148D11B7
:1003BE008D12012A22000D108D158D12012A220098
:1003CE000D108D118D16012A7208F000F1017108C1
:1003DE00003A0319F329012A7008003A0319D729A4
:1003EE00013A0319DC29033A0319E129013A0319E9
:1003FE00E629012A0800700871040319072A082A41
:10040E00312AF501F50A142A0130F035F10D890B68
:10041E000C2A0130F4007408F507F11F172A182A68
:10042E000B2A71087302031D1E2A70087202031C28
:10043E00212A222A262A7008F2027108F33B013083
:10044E00F136F00C890B272A0130F502031D302AF4
:10045E00312A182A7308F1007208F0000800F5011D
:10046E00F6017008710403193D2A3E2A6D2AF70120
:10047E00F70A4A2A0130F035F10D890B422A013074
:10048E00F4007408F707F11F4D2A4E2A412A013055
:10049E00F535F60D890B4F2A71087302031D592A83
:1004AE0070087202031C5C2A5D2A622A7008F2022E
:1004BE007108F33B75140130F136F00C890B632A89
:1004CE000130F702031D6C2A6D2A4E2A7608F100C0
:1004DE007508F00008003F302000CA007930C900CE
:1004EE00FE30C8008730C7004508F0004608F1000E
:1004FE00F201F30100308431EF24823173082000C1
:10050E00A7007208A6007108A5007008A4004A088A
:10051E00A3004908A2004808A1004708A0008531A1
:10052E009B25823120002308BD002208BC00210833
:10053E00BB002008BA0083314523823120003B08DE
:10054E00CC003A08CB004C08C6004B08C50008008A
:10055E00F6007608860087018101810A7008F50091
:10056E00760A86008701750881007108F500760805
:10057E00023E86008701750881007208F500760834
:10058E00033E86008701750881007308F500760822
:10059E00043E86008701750881007408F500760810
:1005AE00053E86008701750881007308F500760800
:1005BE00063E86008701750881007408F5007608EE
:1005CE00073E86008701750881000800FB000A308F
:1005DE00F0000030F1007908F3007808F200823163
:1005EE00022282317008FA007B0A860087017A089F
:1005FE0081000A30F0000030F1007908F30078082D
:10060E00F2008231362282317108F9007008F8004A
:10061E000A30F0000030F1007908F3007808F2009B
:10062E008231022282317008FA007B08023E860077
:10063E0087017A0881000A30F0000030F100790855
:10064E00F3007808F2008231362282317108F90007
:10065E007008F8000A30F0000030F1007908F3005D
:10066E007808F2008231022282317008FA007B088B
:10067E00033E860087017A088100080003102000DF
:10068E003C0D3D0DBE003E08C4004408031D502B1A
:10069E00512B5A2B0030BD000030BC000030BB0087
:1006AE000030BA00B92B3A08BE003B08BF003C0828
:1006BE00C0003D08C1001F30C136C00CBF0CBE0CBF
:1006CE00890B632B3E08C2004208C300BC17FF30E3
:1006DE00BA05FF30BB05FF30BC050030BD059630B6
:1006EE00C402C41F7B2B7C2B942B4408803A973E6C
:1006FE000318822B832B842B512B0130BD36BC0C5F
:10070E00BB0CBA0C890B852B0130BE003E08C4070A
:10071E00031D922B932B842BA92B20304402031CF8
:10072E00992B9A2BA42B512B0130BA35BB0DBC0D36
:10073E00BD0D890B9C2B0130C4024408031DA82B50
:10074E00A92B9B2B43080319AD2BAE2BB92BBA0942
:10075E00BB09BC09BD09BA0A0319BB0A0319BC0AB5
:10076E000319BD0A0800F2001F2C22000C148C1471
:10077E000C158C150C160C178C134A2C22000C1011
:10078E008C140C158C110C120C138C134A2C220089
:10079E000C148C140C118C150C160C138C174A2C73
:1007AE0022000C148C140C158C150C120C138C17B7
:1007BE004A2C22000C108C140C158C110C120C17D8
:1007CE008C174A2C22000C148C100C158C150C1244
:1007DE000C178C174A2C22000C148C100C158C152F
:1007EE000C160C178C174A2C22000C148C140C159A
:1007FE008C110C120C178C134A2C22000C148C1416
:10080E000C158C150C160C178C174A2C22000C1478
:10081E008C140C158C110C120C178C174A2C2200F0
:10082E000C148C140C158C150C160C178C174A2CDA
:10083E007208F000F1017108003A0319272C4A2CB6
:10084E007008003A0319BC2B013A0319C52B033A61
:10085E000319CE2B013A0319D72B073A0319E02BB4
:10086E00013A0319E92B033A0319F22B013A031942
:10087E00FB2B0F3A0319042C013A03190D2C033AE2
:10088E000319162C4A2C08002000D301D4010B307A
:10089E00CD004D08D500D601813148218431E83094
:1008AE00F0000330F1005D308131712184318131EE
:1008BE002021843121001D0821389D001D08A339F7
:1008CE009D00E0309E0004302000CD004D08F00069
:1008DE000530CE004E08F1000630CF004F08F20072
:1008EE000430D0005008F300F401F40A663082316F
:1008FE00AF2284318031FA2084318031F720843167
:10090E00813119218431003A03198E2C8F2C872CBA
:10091E0081310121843171082000D2007008D1008C
:10092E005208C6005108C50082317222843120005F
:10093E004608D4004508D3005408F9005308F800BF
:10094E0066308231ED22843120006908303ECD00C0
:10095E004D08D7002C30CD004D08D8006808303E29
:10096E00CD004D08D9006708303ECD004D08DA00A5
:10097E000D30CD004D08DC0057088131282184311F
:10098E006400200058088131282184312000590844
:10099E0081312821843120005A0881312821843167
:1009AE0020005B0881312821843120005C088131D0
:1009BE0028218431200055088331BA238431200048
:1009CE0056088131D52184316300842C8031022870
:1009DE00F80078080319F42CF52C092DF31FF82CC8
:1009EE00F92C092D7009FA007109FB007209FC003F
:1009FE007309FD00FA0A0319FB0A0319FC0A03190D
:100A0E00FD0A112D7308FD007208FC007108FB0031
:100A1E007008FA007308720471047004031D182D17
:100A2E00192D222D0030F3000030F2000030F100BD
:100A3E000030F0009A2D9630F4007408F900322D33
:100A4E000130F4007408F9070130FD36FC0CFB0C84
:100A5E00FA0C890B2C2DFE307D05031D372D382DFC
:100A6E00272D4C2D0130F4007408F9070130FA07D8
:100A7E000030FB3D0030FC3D0030FD3D0130FD36C9
:100A8E00FC0CFB0CFA0C890B462DFF307D05031D6B
:100A9E00512D522D392D5C2D0130F9020130FA35D0
:100AAE00FB0DFC0DFD0D890B562DFC1B5F2D602DD6
:100ABE00662D023079020318652D662D532D791897
:100ACE00692D6A2D722DFF30FA05FF30FB057F3040
:100ADE00FC05FF30FD050310F90C7908F400F50153
:100AEE00F601F7011830F435F50DF60DF70D890BFB
:100AFE007A2D7408FA047508FB047608FC0477084E
:100B0E00FD04780803198C2D8D2D922DF31F902D39
:100B1E00912D922DFD177D08F3007C08F2007B08C5
:100B2E00F1007A08F0000800200023088039A800A0
:100B3E002808AD002335A8002808B300A21FA82D51
:100B4E00A92DAA2D331433080319AE2DAF2DBE2DAA
:100B5E00330A031DB32DB42DBC2D0030A30000307D
:100B6E00A2000030A1000030A000A217C62D003058
:100B7E00A3000030A2000030A1000030A000270822
:100B8E008039A8002808AD062735A8002808B2002D
:100B9E00A61FD22DD32DD42D321432080319D82DE1
:100BAE00D92DE82D320A031DDD2DDE2DE62D003068
:100BBE00A7000030A6000030A5000030A400A61744
:100BCE00F02D0030A7000030A6000030A500003048
:100BDE00A40032080319F42DF52DFA2D3308031D48
:100BEE00F92DFA2D032E0030A3000030A2000030A4
:100BFE00A1000030A000F12F2008A8002808F00066
:100C0E00260881318F21853171082000B9007008C6
:100C1E00B8003808A800A901AA01AB012B08B10041
:100C2E002A08B0002908AF002808AE003908A8002D
:100C3E00A901AA01AB012B08B7002A08B6002908A2
:100C4E00B5002808B4002108A8002808F0002508DF
:100C5E0081318F21853171082000B9007008B800EC
:100C6E003808A800A901AA01AB012808AE07290877
:100C7E00AF3D2A08B03D2B08B13D3908A800A901A7
:100C8E00AA01AB012808B4072908B53D2A08B63DCC
:100C9E002B08B73D2208A8002808F000240881314F
:100CAE008F21853171082000B9007008B80038080E
:100CBE00A800A901AA01AB012808AE072908AF3D7B
:100CCE002A08B03D2B08B13D3908A800A901AA0198
:100CDE00AB012808B4072908B53D2A08B63D2B08F4
:100CEE00B73D0830AE35AF0DB00DB10D890B792E75
:100CFE002108A8002808F000240881318F218531B1
:100D0E0071082000B9007008B8003808AE0739081D
:100D1E00AF3D0030B03DB13D2008A8002808F000DE
:100D2E00250881318F21853171082000B9007008A6
:100D3E00B8003808AE073908AF3D0030B03DB13DC0
:100D4E000830AE35AF0DB00DB10D890BA82E2008B1
:100D5E00A8002808F000240881318F218531710800
:100D6E002000B9007008B8003808AE073908AF3D4A
:100D7E000030B03DB13D2108A8002808F00026083B
:100D8E0081318F21853171082000B9007008B800BB
:100D9E003808B4073908B53D0030B63DB73D2208D6
:100DAE00A8002808F000250881318F2185317108AF
:100DBE002000B9007008B8003808B4073908B53DEE
:100DCE000030B63DB73D2208A8002808F0002608DE
:100DDE0081318F21853171082000B9007008B8006B
:100DEE003808A8003908A900AA01AB010830A835B7
:100DFE00A90DAA0DAB0D890BFE2E2808B4072908E4
:100E0E00B53D2A08B63D2B08B73D2E08A8002F0881
:100E1E00A9003008AA003108AB001830AB36AA0C76
:100E2E00A90CA80C890B152F2808B4072908B53D65
:100E3E002A08B63D2B08B73D0830AE35AF0DB00DC4
:100E4E00B10D890B242F33083207A800A901A90D73
:100E5E002808823EB800FF30293DB9004D2F0130E1
:100E6E00B435B50DB60DB70D890B372FB11F402F09
:100E7E00412F422F34140130AE35AF0DB00DB10DF0
:100E8E00890B432FFF30B807FF30B93DB61F502FE7
:100E9E00512F362FB201B11F552F562F722FFF3003
:100EAE002E05A800FF302F05A900FF303005AA003F
:100EBE007F303105AB002B082A04290428040319BE
:100ECE00692F6A2F6D2FB201B20A722F341C702F48
:100EDE00712F722F6A2F32080319762F772F9F2FBB
:100EEE000130B4070030B53D0030B63D0030B73D9F
:100EFE00371C822F832F9F2F3408A8003508A90096
:100F0E003608AA003708AB000130AC00AB37AA0C8C
:100F1E00A90CA80CAC0B8D2F2B08B7002A08B60015
:100F2E002908B5002808B4000130B8070030B93DD3
:100F3E003908803AA80080302802031DA82FFF3000
:100F4E003802031CAB2FAC2FB62F7F302000B7001A
:100F5E008030B6000030B5000030B400E52F200020
:100F6E003908803AA80080302802031DC02F0130B6
:100F7E0038020318C32FC42FCF2F00302000B70024
:100F8E000030B6000030B5000030B400AD01E52FE2
:100F9E0020003808A8002808B300FF30B405FF3041
:100FAE00B5057F30B6050030B705331CDF2FE02FB7
:100FBE00E12FB6173336A8002808B7002D08A80071
:100FCE002808B7043708A3003608A2003508A10088
:100FDE003408A00008002000EE012100A001A101AC
:100FEE00A201A301A401A501A601A701200084313D
:020FFE004B2C7A
:020000040001F9
:04000E00FC3FFF3F75
:00000001FF
